S04C00004D52532D436865636B3E3E3E3430313239322C3430313532312C3430313532332C3430313532353C3C3C42202F2F2056332E31302E3130392E30204C69622D5333324B2D332E382E305C
S02F00004D52532D50726F67446174613E3E3E323530206B4269743B2D2D2D2D56782E782E783B4D6F64756C6E616D65BE
S04900004D52532D4578747261446174613E3E3E312E3136392E3330302E313230302C312E3136392E3330302E343230302C312E3136392E3330302E353230302C312E3136392E3B423BDC
S06E00004D52532D496D6167654964656E743E3E3E443438444432343631364331384334433435373743333642344441393246393339334332354433333843434134433439423233393236434443304134333430393C3C3C202F2F20323032332D30312D31305431363A33393A313248
S325000100007856341201BA645A01000000057C77C3005101004E4F5F50524F4700000000000A
S325000100200000000000000000000000000000000000000000000000000000000000000000B9
S32500010040000000000000000000000000000000000000000000000000000000000000000099
S32500010060000000000000000000000000000000000000000000000000000000000000000079
S32500010080000000000000000000000000000000000000000000000000000000000000000059
S3250001100000F0012051140100991401009914010099140100991401009914010000000000EC
S3250001102000000000000000000000000099140100991401000000000099140100D9A5010020
S3250001104079590100835901008D59010097590100A1590100AB590100B5590100BF590100D9
S32500011060C9590100D3590100DD590100E7590100F1590100FB590100055A01000F5A010037
S32500011080195A01009914010099140100991401009914010099140100991401009914010013
S325000110A06F8F0100798F0100C38F0100CD8F0100D78F0100838F01008D8F0100991401002C
S325000110C0991401009914010099140100991401009914010099140100991401009914010099
S325000110E0DD31010099140100991401009914010099140100991401003D98010047980100BE
S32500011100991401009914010099140100991401009914010099140100991401009914010058
S32500011120991401009914010099140100991401009914010099140100991401009914010038
S32500011140991401009914010099140100991401009914010099140100991401009914010018
S32500011160991401009914010099140100991401009914010099140100257201002F7201001A
S3250001118039720100437201004D72010099140100991401005772010061720100991401007E
S325000111A06B7201007572010099140100991401007F72010089720100991401009372010064
S325000111C09D7201009914010099140100ED7C0100F97C0100057D0100117D010099140100FC
S325000111E04D7D01001D7D0100297D0100357D0100417D010099140100697D0100857D0100D1
S32500011200917D01009D7D0100A97D010099140100E57D0100B57D0100C17D0100CD7D0100A8
S32500011220D97D010099140100017E01001D7E0100297E0100357E0100417E010099140100BC
S325000112407D7E01004D7E0100597E0100657E0100717E010099140100997E0100B57E010019
S32500011260C17E0100CD7E0100D97E010099140100157F0100E57E0100F17E0100FD7E0100F0
S32500011280097F010099140100317F01009914010099140100991401009914010099140100F9
S325000112A09914010099140100991401009914010099140100991401009914010099140100B7
S325000112C0991401009914010099140100991401009914010099140100991401009914010097
S325000112E0991401009914010099140100991401009914010099140100991401009914010077
S32500011300991401009914010099140100991401009914010099140100991401009914010056
S32500011320991401009914010099140100991401009914010099140100991401009914010036
S32500011340991401009914010099140100991401009914010099140100991401009914010016
S325000113609914010099140100991401009914010099140100991401009914010099140100F6
S325000113809914010099140100991401009914010099140100991401009914010099140100D6
S325000113A09914010099140100991401009914010099140100991401009914010099140100B6
S325000113C0991401009914010099140100991401009914010099140100991401009914010096
S325000113E099140100991401009914010099140100991401009914010099140100FFFFFFFF28
S32500011400FFFFFFFFFFFFFFFFFFFFFFFFFE7FFFFF10B5054C237833B9044B13B10448AFF3B8
S3250001142000800123237010BD0400002000000000B423020008B5034B1BB103490348AFF394
S32500011440008008BD0000000008000020B423020072B64FF000014FF000024FF000034FF015
S3250001146000044FF000054FF000064FF00007B846B946BA46BB46BC46044880470448854668
S325000114800448804762B602F009FAFEE7553A010000F00120F1980100FFF7FEBF81F00041B0
S325000114A002E000BF83F0004330B54FEA41044FEA430594EA050F08BF90EA020F1FBF54EAEA
S325000114C0000C55EA020C7FEA645C7FEA655C00F0E2804FEA5454D4EB5555B8BF6D420CDDAE
S325000114E02C4480EA020281EA030382EA000083EA010180EA020281EA0303362D88BF30BD45
S3250001150011F0004F4FEA01314FF4801C4CEA113102D0404261EB410113F0004F4FEA03330F
S325000115204CEA133302D0524263EB430394EA050F00F0A780A4F10104D5F1200E0DDB02FA13
S325000115400EFC22FA05F2801841F1000103FA0EF2801843FA05F359410EE0A5F120050EF190
S32500011560200E012A03FA0EFC28BF4CF0020C43FA05F3C01851EBE37101F0004507D54FF0E5
S32500011580000EDCF1000C7EEB00006EEB0101B1F5801F1BD3B1F5001F0CD349085FEA3000F8
S325000115A04FEA3C0C04F101044FEA445212F5800F80F09A80BCF1004F08BF5FEA500C50F111
S325000115C0000041EB045141EA050130BD5FEA4C0C404141EB010111F4801FA4F10104E9D11D
S325000115E091F0000F04BF01460020B1FA81F308BF2033A3F10B03B3F120020CDA0C3208DD80
S3250001160002F1140CC2F10C0201FA0CF021FA02F10CE002F11402D8BFC2F1200C01FA02F191
S3250001162020FA0CFCDCBF41EA0C019040E41AA2BF01EB0451294330BD6FEA04041F3C1CDA33
S325000116400C340EDC04F11404C4F1200220FA04F001FA02F340EA030021FA04F345EA030105
S3250001166030BDC4F10C04C4F1200220FA02F001FA04F340EA0300294630BD21FA04F02946D5
S3250001168030BD94F0000F83F4801306BF81F480110134013D4EE77FEA645C18BF7FEA655C1C
S325000116A029D094EA050F08BF90EA020F05D054EA000C04BF1946104630BD91EA030F1EBF58
S325000116C00021002030BD5FEA545C05D14000494128BF41F0004130BD14F580043CBF01F578
S325000116E0801130BD01F0004545F0FE4141F470014FF0000030BD7FEA645C1ABF1946104632
S325000117007FEA655C1CBF0B46024650EA013406BF52EA033591EA030F41F4002130BD00BFED
S3250001172090F0000F04BF0021704730B54FF4806404F132044FF000054FF0000150E700BFC7
S3250001174090F0000F04BF0021704730B54FF4806404F1320410F0004548BF40424FF0000113
S325000117603EE700BF42004FEAE2014FEA31014FEA02701FBF12F07F4393F07F4F81F06051F5
S32500011780704732F07F4208BF704793F07F4F04BF41F40021704730B54FF4607401F00045D7
S325000117A021F000411CE700BF50EA010208BF704730B54FF000050AE050EA010208BF704785
S325000117C030B511F0004502D5404261EB41014FF4806404F132045FEA915C3FF4D8AE4FF070
S325000117E003025FEADC0C18BF03325FEADC0C18BF033202EBDC02C2F1200300FA03FC20FAAF
S3250001180002F001FA03FE40EA0E0021FA02F11444BDE600BF70B54FF0FF0C4CF4E06C1CEAD2
S3250001182011541DBF1CEA135594EA0C0F95EA0C0F00F0DEF82C4481EA030621EA4C5123EA60
S325000118404C5350EA013518BF52EA033541F4801143F4801338D0A0FB02CE4FF00005E1FB04
S3250001186002E506F00042E0FB03E54FF00006E1FB03569CF0000F18BF4EF0010EA4F1FF04AE
S32500011880B6F5007F64F5407404D25FEA4E0E6D4146EB060642EAC62141EA55514FEAC520A2
S325000118A040EA5E504FEACE2EB4F1FD0C88BFBCF5E06F1ED8BEF1004F08BF5FEA500E50F17C
S325000118C0000041EB045170BD06F0004646EA010140EA020081EA0301B4EB5C04C2BFD4EB0B
S325000118E00C0541EA045170BD41F480114FF0000E013C00F3AB8014F1360FDEBF002001F0BD
S32500011900004170BDC4F10004203C35DA0C341BDC04F11404C4F1200500FA05F320FA04F010
S3250001192001FA05F240EA020001F0004221F0004110EBD37021FA04F642EB06015EEA430EDD
S3250001194008BF20EAD37070BDC4F10C04C4F1200500FA04F320FA05F001FA04F240EA020083
S3250001196001F0004110EBD37041F100015EEA430E08BF20EAD37070BDC4F1200500FA05F218
S325000119804EEA020E20FA04F301FA05F243EA020321FA04F001F0004121FA04F220EA020065
S325000119A000EBD3705EEA430E08BF20EAD37070BD94F0000F0FD101F00046400041EB010100
S325000119C011F4801F08BF013CF7D041EA060195F0000F18BF704703F00046520043EB03037E
S325000119E013F4801F08BF013DF7D043EA0603704794EA0C0F0CEA135518BF95EA0C0F0CD03D
S32500011A0050EA410618BF52EA4306D1D181EA030101F000414FF0000070BD50EA410606BFED
S32500011A201046194652EA430619D094EA0C0F02D150EA013613D195EA0C0F05D152EA0336D6
S32500011A401CBF104619460AD181EA030101F0004141F0FE4141F470014FF0000070BD41F0C0
S32500011A60FE4141F4780170BD70B54FF0FF0C4CF4E06C1CEA11541DBF1CEA135594EA0C0FFC
S32500011A8095EA0C0F00F0A7F8A4EB050481EA030E52EA03354FEA013100F088804FEA0333BC
S32500011AA04FF0805545EA131343EA12634FEA022245EA111545EA10654FEA00260EF0004120
S32500011AC09D4208BF964244F1FD0404F5407402D25B084FEA3202B61A65EB03055B084FEA36
S32500011AE032024FF480104FF4002CB6EB020E75EB030E22BFB61A754640EA0C005B084FEA09
S32500011B003202B6EB020E75EB030E22BFB61A754640EA5C005B084FEA3202B6EB020E75EB95
S32500011B20030E22BFB61A754640EA9C005B084FEA3202B6EB020E75EB030E22BFB61A7546FD
S32500011B4040EADC0055EA060E18D04FEA051545EA16754FEA06164FEAC30343EA52734FEAB1
S32500011B60C2025FEA1C1CC0D111F4801F0BD141EA00014FF000004FF0004CB6E711F4801FD1
S32500011B8004BF01430020B4F1FD0C88BFBCF5E06F3FF6AFAEB5EB030C04BFB6EB020C5FEA26
S32500011BA0500C50F1000041EB045170BD0EF0004E4EEA113114EB5C04C2BFD4EB0C0541EA32
S32500011BC0045170BD41F480114FF0000E013C90E645EA060E8DE60CEA135594EA0C0F08BF42
S32500011BE095EA0C0F3FF43BAF94EA0C0F0AD150EA01347FF434AF95EA0C0F7FF425AF1046B7
S32500011C0019462CE795EA0C0F06D152EA03353FF4FDAE1046194622E750EA410618BF52EA36
S32500011C2043067FF4C5AE50EA41047FF40DAF52EA43057FF4EBAE12E74A0011D212F50012F1
S32500011C4011D20DD56FF47873B3EB62520ED44FEAC12343F0004343EA505323FA02F070470D
S32500011C604FF00000704750EA013002D14FF0FF3070474FF000007047034613F8012B002A64
S32500011C80FBD1181A013870477047704700B589B000220421902001F0D1FE00220421912044
S32500011CA001F0CCFE00220421922001F0C7FE00220421932001F0C2FEFF230793069305931B
S32500011CC004930020039002900190009008230246012101F049FE09B05DF804FB1B4A138826
S32500011CE001339BB21380642B00D0704710B588B0174C22460321902001F095FE621C0321F1
S32500011D00912001F090FEA21C0321922001F08BFEE21C0321932001F086FEFF2307930693DF
S32500011D2005930493E3780393A37802936378019323780093082300224FF48071104601F067
S32500011D4013FE024B00221A8008B010BD20000020F835FE1F7047704708B5012008F0B4FC5F
S32500011D600021084608F074FC094801F005FC0121302008F099F801211E2008F095F8002141
S32500011D80012008F091F80121062008F08DF808BDA00F020008B507286DD8DFE800F0041162
S32500011DA01E2B3845525F00214D2008F07DF800214E2008F079F800214F2008F075F808BDF8
S32500011DC001214D2008F070F800214E2008F06CF800214F2008F068F8F1E700214D2008F0DC
S32500011DE063F801214E2008F05FF800214F2008F05BF8E4E701214D2008F056F801214E2097
S32500011E0008F052F800214F2008F04EF8D7E700214D2008F049F800214E2008F045F8012140
S32500011E204F2008F041F8CAE701214D2008F03CF800214E2008F038F801214F2008F034F823
S32500011E40BDE700214D2008F02FF801214E2008F02BF801214F2008F027F8B0E701214D20B1
S32500011E6008F022F801214E2008F01EF801214F2008F01AF8A3E700214D2008F015F80021D2
S32500011E804E2008F011F800214F2008F00DF896E72DE9F04100211E2008F006F80F4C04F1D6
S32500011EA02A0800272D252E263946284607F0FCFF6178304607F0F8FF0121284607F0F4FF86
S32500011EC002344445F0D101211E2007F0EDFF0021012007F0E9FFBDE8F08100BFD00FFE1F46
S32500011EE0030E03EB0063020202F47F021344000A00F47F4018447047B2F5007F5CD22DE96D
S32500011F00F04F83B0D418B4F5007F41DC5C1EA4B21F2C3DD802F0070E03EB0E04202C37DC81
S32500011F204FF0000C6446640044F001040CF1010C1FFA8CF5AB42F6D80F46D50805F1010B75
S32500011F4005F1020A05F1030911F80B2011F80A804FEA084808EB02284A5D904411F809601C
S32500011F6008EB066820409DF83020012A13D000FA0EF604FA0EF028EA000006437E55330A41
S32500011F8007F80B30330C07F80A30360E07F8096003B0BDE8F08FC3F12003A3EB0E0E1FFA6B
S32500011FA08EF301939840FFF79BFF0646019B04FA03F0FFF795FFDEE77047B1F5007F3CD28B
S32500011FC070B48C18B4F5007F39DC541EA4B21F2C38D801F007041519202D35DCCD08012B49
S32500011FE017D046197178B3781B0403EB0123405D0344F07803EB006020FA04F10023184625
S32500012000400040F0010001339CB29442F8D3084016E04419E378405D03EB0060A37800EB3E
S325000120200320637800EB0340C2F1200301F00701591AC9B220FA01F1E0E7002070470020E6
S3250001204070BC70470020FBE70020F9E7F8B506460D4B53F82030DC680C3400252F4639460B
S32500012060304600F0B7FCEBB2984204D944F8044C01351434F3E7044B53F826301422196861
S32500012080586900F035FFF8BD7C10FE1FF8B506460D4B53F820309C680C34002501273946FA
S325000120A0304600F097FCEBB2984204D944F8044C01351434F3E7044B53F826301422596801
S325000120C0186900F015FFF8BD7C10FE1F10B596B00446069008F04EFB0E4B53F824309A68F0
S325000120E06946186900F06DFF18B108F045FB16B010BD03AB0293694605A807F021FE0028DC
S32500012100F3D1044B53F824309A686946186900F02FFFEAE77C10FE1F00B583B000238DF8AC
S3250001212007308DF807309DF80730DBB2012B0ED89DF80700FFF7CAFF9DF807300133DBB252
S325000121408DF807309DF80730DBB2012BF0D903B05DF804FB08B50B4602680A60017A1A7A76
S3250001216061F300021A72027AC2F34002197A62F34101197290F8492083F8492090F84A2087
S3250001218083F84A2090F84B2083F84B2090F84C2083F84C2090F8492000F1090103F10900B6
S325000121A00EF054FB08BD000070B586B005460C4601AB0868496803C300230393A66820791B
S325000121C007F0A2FD0246314604A80EF03FFB064B53F82530DA6801A9586900F09DFE204630
S325000121E000F03EFD06B070BD7C10FE1F30B587B005460C460A7A0B6843EAC273019391F8F2
S32500012200490007F0EDFD8DF8080094F84B308DF8093094F84C308DF80A300023039394F82F
S32500012220492004F1090104A80EF010FB064B53F825309A6801A9186900F06EFE002818BF01
S32500012240082007B030BD00BF7C10FE1F2DE9F84F07468946534B9B88002B7BD00024524DD0
S32500012260DFF8408101F1090A24E005EB46135B7F002B49D198F80C30002B55D099F8083069
S3250001228013F0010F50D005EB46135B6803F47F43B8F81020934247D1D9F8003003F47F43B8
S325000122A0B8F8122093423FD00134E4B2B8F80430A3424FD926466301EB5CDBB2BB42F3D130
S325000122C005EB44135B7D002BEED105EB44131B7ADBB299F8082002F001029A42E4D105EB56
S325000122E044139969D9F800205B689A42BDD005EB44139B69002BD7D005EB44135B685A40A0
S3250001230032EA0103D0D1B0E705EB461B9BF81C109BF81D2000235046FFF74FFE9BF81E30A1
S32500012320DBB29842C0D1A5E71F4B03EB46139B7DDBB2172B25D01D4A682303FB06231B7DD4
S3250001234013F0080F15D06821194B01FB04314846FFF700FF07EB8703C7EBC302154B13442C
S32500012360DB78154B1B6813B1494638469847BDE8F88F0D4B03EB4616B07D4946FFF736FFBB
S32500012380E1E74FF0680808FB04F00830074D0321284400F049FB08FB06531A7D42F0010250
S325000123A01A75D0E72036FE1F500902003023FE1F4823FE1FD8080200240000201F4B9B7867
S325000123C0002B3AD0F0B59BB000241D4F1B4E27E0019B23F000420692DB0F9DF8202063F333
S325000123E000028DF820209DF8080007F08DFC02468DF861009DF809308DF863309DF80A300F
S325000124008DF8643004A90DF121000EF01FFA06A92846FFF71BFF0134B278E3B29A420AD9D9
S32500012420E5B257F82530DA6801A9586900F0A0FD0028F0D1CCE71BB0F0BD70472036FE1FE2
S325000124407C10FE1F2DE9F04F83B06C4B9B88002B00F0CE806A4D00246A4EA846674F4BE09F
S3250001246003230A2229690DF1070000F00CFB00285BD19DF80730012B57D1032105F11000D7
S3250001248000F0D2FA06EB4413DB684FF0010B53E01FFA89F2002A6DD09AF821109AF80030F0
S325000124A099426AD16823564903FB0413013A13FA82F083425ED093F8222013F8011F914248
S325000124C0F7D05AE06201B318187A682303FB048393F8201060F3000183F820108AF86190F7
S325000124E0B05C05F11801FFF781FE002860D001346835BB88A3427BD906EB44135B7D002B54
S32500012500F5D0682303FB04831B7D13F0040FEED106EB4413187D07F0F7FB8146682303FB5C
S3250001252004831B7D13F0020F9AD106EB4413DB68002BDCD04FF0000BAA4606EB4413DA68D0
S325000125400323E9680DF1070000F09DFA18B99DF80730012B11D006EB44131A690323DAF804
S325000125600C100DF1070000F08EFA18B99DF80730012B8DD0BBF1000FB9D006EB44135B6846
S32500012580CAF818303A7B002A9CD006EB4412127A002A97D006EB44125268D2B2797B8A4236
S325000125A090D123F0FF03BA7B1343CAF8183089E7682303FB04831A7D6FF341021A751FFAA5
S325000125C089F27AB1682101FB04F10D48431801300144013A11FA82F193F8212003F8012B02
S325000125E08B42F9D1032105F10C0000F01DFA7EE7FFF792FD03B0BDE8F08F00BF2036FE1F1D
S325000126003023FE1F5009020070B594B006461C460091C90F9DF8083061F300038DF8083087
S32500012620104607F071FB05468DF849008DF84B409DF860308DF84C30402200210DF1090001
S325000126400EF012F92A4619990DF109000EF0FEF8002C0CBF082340239DF849209A4202D913
S325000126600F2014B070BD69463079FFF7BFFDF8E7014B1860704700BF2400002084B070B573
S3250001268004AC84E80F009DF8564000238DF81C308DF81D309DF8543005939DF85530012B20
S325000126A003D0BDE8704004B070479DF865300B939DF866300C939DF864300D939DF86830F8
S325000126C00A939DF863300E939DF87A30012B25D00C208DF81C001C494B1C1D3100250126FA
S325000126E013F8012CA24204BF1878354602338B42F6D10DB18DF81C009DF81C1004A807F05D
S3250001270093FA9DF81D1004A807F0D0FA1D2C94BF2146052104A800F019FBC2E79DF8763039
S3250001272010939DF8773011939DF8753012939DF879300F939DF8743013930D238DF81C3070
S325000127408DF81D30D8E700BFAC0F0200F0B583B0164B05221A8002229A7003229A800024DA
S325000127609C711C819C72124D124F1E4614E005EB4113987F1A7F5B7F4FF0680C0CFB017188
S325000127804FF0000CCDF800C02131FFF7B5FB0134B288A3B29A4206D9A1B205EB41135B7F7A
S325000127A0002BF4D0E3E703B0F0BD00BF2036FE1F500902003023FE1F10B586B004AB0393BC
S325000127C0054C03011A1804EB8202916001A9104607F0AEF906B010BD2800002000230B6010
S325000127E002280CD810B50C4600EB00104422044901EB800120460EF029F8246010BD704705
S325000128002800002010B5154C21460020FFF7E6FF134B1A7862605B78DBB2012B0FD00F4C69
S3250001282004F144010120FFF7D9FF0D4B93F82720A26493F82830DBB2012B07D010BD0020D8
S32500012840FFF724FC0020FFF701FCE8E70120FFF71DFC0120FFF7FAFBF0E700BF280000205F
S32500012860D80802002DE9F04184B006460023019302930393541E0F46154612E0A8EB050317
S32500012880B36063788DF80C303B680193BB68DB43029301A9304607F089F90437AC4206D0DD
S325000128A0444604F101086378022BF6D0E6E704B0BDE8F0812DE9F04F83B081460024ADF80C
S325000128C00440424D0746424EA0461FE08B78DBB21E2B84BF012385F840302BE0C1F80480E7
S325000128E0C1F8008040F2FF738B606FF06043CB608DF8048001238DF8053001AA5046FFF7BE
S32500012900B1FF013444351437022C57D0224604EB8403C4EBC303F118F35CAA466B6085F8CF
S3250001292040804B78DBB2012BEBD191F82630DBB2012BCBD002EB8203C2EBC30206EB020B83
S32500012940B15C4246504607F0B7F839469BF80330DBB2012BC2D0B9F1000FBFD03B7C042BE1
S32500012960BCD0032B1AD8DFE803F002070D138DF804808DF80580C0E78DF8048001238DF855
S325000129800530BAE701238DF804308DF80530B4E702238DF804308DF80530AEE7C7F80480B8
S325000129A0C7F8008040F2FF73BB606FF06043FB608DF8048001238DF805309EE70621022000
S325000129C000F056F903B0BDE8F08F00BF28000020D808020082B00023ADF80430012802D9BF
S325000129E0002002B07047012901D90020F9E701280ED043B233B1022810D002AB194411F846
S32500012A00040CEEE728238DF804308DF80530F4E728238DF804308DF80530EEE705238DF8F1
S32500012A2004308DF80530E8E700B583B000238DF8073007F09FFC10B101238DF807309DF843
S32500012A40070003B05DF804FB30B583B005460C4603238DF80730002300931146684607F018
S32500012A6089FC30B101238DF807309DF8070003B030BD009B1A1B2A60A34234BF0223002353
S32500012A808DF80730F1E730B583B00446154603228DF80720002200921A466846FFF7D4FF82
S32500012AA08DF807009DF8073023B19DF80730DBB2022B05D1009BAB422CBF0123002323703A
S32500012AC09DF8070003B030BDF0B49DF81070012A75D9032F77D802F10045013D30F915400C
S32500012AE09C423ADA023A96B231F91520022F24D0E41A012F53D07300C5180B44B3F9023007
S32500012B0031F916105B1A04FB03F4B5F9023030F91600181A94FBF0F4101B2C4B9842B8BF3C
S32500012B20184647F6FF739842A8BF1846023FFFB2012F45D820EAE07042E030F9162031F99E
S32500012B401600101A181A214B9842B8BF184647F6FF739842A8BF1846ECE7861CB0F9024033
S32500012B60A342C8BF012514DD0135ADB2AA4212D036F9024FA342F7DC6E1EB6B231F91520DD
S32500012B80B0F900509D42C4BFB1F900202C46E41AAFE70125F0E7002214461646A9E7B0F9F5
S32500012BA000509D42A7DDB1F90000084B9842B8BF184647F6FF739842A8BF184600E0002061
S32500012BC000B2F0BC70470020FAE700BF0080FFFF08B50F4B20F00040586083F8481051B1A7
S32500012BE0531E0C48013952FA81F213F8011F00F8011F9342F9D1084B187800231A46074978
S32500012C0000F2045007F0E4FD003018BF012008BDF8000020FF000020F400002000000B0547
S32500012C2008B500231A4619464FF4E16007F0D0FD003018BF012008BD022801D003207047E4
S32500012C4008B50B6903F1080293F848105868FFF7BFFF002008BD08B507F076FE002008BDF5
S32500012C6008B5826801790068FFF7B2FF08BD000070B582B005460E4609F024F978B92C48A7
S32500012C8009F022FB03782B4A1370022B24D8294B1878012825D90124204602B070BD09F0ED
S32500012CA011F90D280CD009F00DF901280CD009F009F90E280CD0A82116200DF0F4FCE1E72D
S32500012CC01D4809F001FBDDE7CB2009F0FDFAD9E7CB2009F0F9FAD5E7A92116200DF0E0FCC8
S32500012CE0D5E700EB8003C0EBC302144B13445C78E4B2012C01D00124CEE78DF80050104B0B
S32500012D0001936B4640F205520E4900F2045007F05FFD0028C0D1074B1878334600220A4965
S32500012D2000F2045007F054FD041C18BF0124B3E7EE009D00F4000020F0009D00D80802003A
S32500012D40F800002005050C0500000D05634B1A7843689A4201D00220704710B50C4609F0A6
S32500012D60B1F8A0B9A3B2DA4303EB02239BB21A0292B242EA13224FF00211594809F01CFBB4
S32500012D80B0FA80F04009002849D1012010BD09F099F80D280FD009F095F801281DD009F066
S32500012DA091F80E282AD0DE2116200DF07CFCB0FA80F04009E7E7A3B2DA4303EB02239BB2A6
S32500012DC01A0292B242EA13224FF00211454809F0F3FAB0FA80F04009D5E7A3B2DA4303EBE7
S32500012DE002239BB21A0292B242EA13220221D02009F0E2FAB0FA80F04009C4E7A3B2DA4331
S32500012E0003EB02239BB21A0292B242EA13220221D02009F0D1FAB0FA80F04009B3E709F0BD
S32500012E2051F898B9A1B2CB4301EB032189B20A0292B242EA11224FF002112B4809F0BCFA22
S32500012E40B0FA80F0400980F001009FE709F03AF80D280FD009F036F801281DD009F032F872
S32500012E600E282AD0E02116200DF01DFCB0FA80F04009E8E7A1B2CB4301EB032189B20A02E4
S32500012E8092B242EA11224FF00211184809F094FAB0FA80F04009D6E7A1B2CB4301EB0323BC
S32500012EA09BB21A0292B242EA13220221D22009F083FAB0FA80F04009C5E7A1B2CB4301EB16
S32500012EC003239BB21A0292B242EA13220221D22009F072FAB0FA80F04009B4E7F40000202B
S32500012EE0AC005B00AE005B00AE005D00B0005D00034658B161B16AB100201860196158605A
S32500012F009860187558759875DA607047012070470120704701207047F8B504460F4616462A
S32500012F2007F028FC257D0DBB01232375236801332269934206D903250023237507F01CFC59
S32500012F402846F8BDE36860681A46394600FB03600DF07CFC6368013363602269934224BF7D
S32500012F6000236360236801332360E5E70225E5E7F8B504460E46174607F0FCFB657DF5B93D
S32500012F8001236375236833B904250023637507F0F3FB2846F8BDE368A1681A4601FB037167
S32500012FA030460DF053FCA3680133A3602269934224BF0023A3602368013B2360E5E7022560
S32500012FC0E5E770B5457DA5B916460B46044601224275026822B9042500236375284670BD04
S32500012FE0C16880680A4600FB016118460DF02EFCF2E70225F2E7000070B5384C214600207E
S3250001300006F010FA002006F045FA2146012006F009FA012006F03EFA0024314D06F02FFDC0
S32500013020661CE3B283420BD2E4B2240104F108022B192A445968285906F056FA3446EDE78E
S325000130404FF47A61002006F043FA00231A461946184606F06BFA4FF47A7300220121104693
S3250001306006F064FA4FF47A61012006F031FA00231A461946012006F059FA4FF47A730022F7
S325000130800121084606F052FA4FF4FA6300220221104606F04BFA40F6B83300220321104644
S325000130A006F044FA4FF4FA6300220221012006F03DFA40F6B83300220321012006F036FAF4
S325000130C0002006F0FBF9002006F0EEF9012006F0F5F9012006F0E8F970BD00BF641502007E
S325000130E070150200F8B52249002000F027FD2149012000F023FD4FF4087009F0E5F8028840
S3250001310046F6B3539A4205D11B4C1C4D04F28C571B4E0FE0002000F00FFE012000F00CFE7B
S32500013120F2E72A46A178607800F0CCFD14340635BC4209D0237B002BF3D03378627B9A424B
S3250001314084BF01333370F1E700220E49272005F097FA00220C49282005F092FAFFF74CFFAF
S32500013160272005F0A5FA282005F0A2FAF8BD00BF901302009C130200000A02006C11FE1F24
S32500013180AC040020DD310100E93101002DE9F04180460E460E4C0F4D04F28C5708E02A46E6
S325000131A0A178304600F0BCFD14340235BC4203D06378B342F8D1F2E7404606F075F9064AD4
S325000131C052F82630013342F82630BDE8F08100BF000A02004C010020A404002008B5002190
S325000131E00846FFF7D3FF08BD08B501210846FFF7CDFF08BD38B505460C46084605F064FA0E
S32500013200034B53F82550204605F052FA284638BDA40400202DE9F0410446884616461D46A9
S325000132201946FFF7E7FF3368834201D1BDE8F0810746012388F80030284605F045FA0A4BEC
S325000132400A490B4A03F28C5C5878A04204BF08881080143302310A326345F5D1284605F0C6
S3250001326027FA3760E2E700BF000A02004C010020DC0100202DE9F04F85B081460F460020CB
S325000132808DF80F008DF80E00494D27232A460DF10F01FFF7BFFF474C282322460DF10E019B
S325000132A00120FFF7B7FF2A68434B1B68A2EB030A2268424B1B68A2EB030B9DF80F30012BC8
S325000132C00CD09DF80E30012B08D0BAF1130F02D9BBF1130F53D805B0BDE8F08F384D394CB0
S325000132E004F2C62839E02388638087B3167C86B3D08900F2222008F0E7FF60B1B0F90030E2
S32500013300B3F1FF3F07D0032E0BD0072E15D04FF00003E3800EE04FF00003E3806388238100
S3250001332017E003230093B4F902300322811DFFF7CBFBE080E38823810BE003230093B4F9B8
S3250001334002300322811DFFF7BFFBE080F2E76388238114350A344445B7D02A462B7B002B21
S32500013360C1D099F800106B7B9942BED1BAF1130FBBD9BBF1130FB8D923886380B5E70C4B83
S325000133801A680D4B1A600B4B1A680C4B1A6099F8002001320C4B1B78013392FBF3F003FBB9
S325000133A01020C0B289F80000FEF7F4FC93E700BF4401002048010020B0040020B40400204B
S325000133C0000A0200DC010020AC04002010B596B0044614A813900194029231B1042902D14E
S325000133E02046FEF773FE16B010BD19461046FFF723FC0328F7D111A9684606F099FB11A9FE
S325000134002046FEF7D1FEEEE710B596B0044614A813900194029231B1042902D12046FEF78C
S3250001342055FE16B010BD19461046FFF705FC0328F7D111A9684606F07BFB11A92046FEF717
S32500013440B3FEEEE710B596B0044614A813900194029231B1042902D12046FEF737FE16B0CA
S3250001346010BD19461046FFF7E7FB0328F7D111A9684606F05DFB11A92046FEF795FEEEE7C5
S325000134800A2900D070472DE9F04184B0044603F011FA06462D4B184202D104B0BDE8F081ED
S325000134A02B4800EBC4004660032106F063FF16F0400F1DD0274B03EB04139B681B68042B53
S325000134C016D90425234B03EB041805E00135D8F808301B68AB420BD9EFB23946204603F065
S325000134E0D7F90028F2D03946204603F0EBF9EDE716F0080F14D0002502E00135032D0FD02E
S32500013500EFB23946204603F0C3F90028F5D03946204603F0D7F929462046FFF74DF9ECE7F6
S325000135200D4B93E8070004AB03E9070003EB840050F80C4C204603F013FC16F4001FACD0E9
S32500013540236A43F400132362A7E700BF00FC20009836FE1F2013FE1F78080200002343611B
S325000135608361C3610362042280F82420036043608360C360027470472DE9F04FC5B00746A5
S32500013580724B1B783BB922AD0024714EDFF8CC81DFF8CC917EE000246C4B1C70FFF7D6F84D
S325000135A0FFF730F918A8FFF7D9FF18A8FFF782F922A92046FFF712F9654C0DAE04F1200C67
S325000135C0354620686168A268E3680FC510342E466445F5D120682860A288A379AA80AB712C
S325000135E06C4626AD0FCD0FC40FCD0FC40FCD0FC42B68236022AB0FCBFFF740F833A901204A
S32500013600FFF7ECF8524B03F127040DAE03F1470C354620686168A268E3680FC510342E465E
S325000136206445F5D120682860A288A379AA80AB716C4637AD0FCD0FC40FCD0FC40FCD0FC4D5
S325000136402B68236033AB0FCBFFF718F89BE704EB840BC4EBCB0B16F80B30012137F823004D
S3250001366006F022FC16F80B3007EB83030121588806F01AFC374B2B610021504606F0BEFAED
S32500013680CAF814800021504606F0C3FA01344435022C57D004EB8403C4EBC303F118F35C1D
S325000136A0AA466B604B78DBB2012BEFD104EB8403C4EBC303F35C37F823307A2BDCD004EB10
S325000136C08403C4EBC303F35C07EB83035B887A2BD2D004EB8403C4EBC303F35CDBB2012B03
S325000136E01AD059B20029B2D0022BC5D104EB840BC4EBCB0B16F80B30012137F8230006F0AA
S32500013700D3FB16F80B3007EB83030121588806F0CBFB114B2B61AFE704EB840BC4EBCB0BD4
S3250001372016F80B30012137F8230006F0BDFB16F80B3007EB83030121588806F0B5FBC5F8F1
S32500013740109099E745B0BDE8F08F00BF8810FE1FD8080200CD3301004534010081340100A2
S3250001376009340100002070472DE9F0410746154E154C0025A84604E0013503361034162DE8
S325000137801DD07378BB42F7D12288002AF4D0A38801339BB2A38061880131B3EB610FEBDB2F
S325000137A0A4F80480A37A5B425BB2A37213FB02F2E188114489B2A8B206F02EFDDCE7BDE828
S325000137C0F08100BF700FFE1FB036FE1F08B50020FFF7CAFF4FF40071002003F03FFE08BDAE
S325000137E008B50120FFF7C0FF4FF40071012003F035FE08BD08B50220FFF7B6FF4FF4007131
S32500013800022003F02BFE08BD08B50320FFF7ACFF4FF40071032003F021FE08BD08B504208E
S32500013820FFF7A2FF4FF40071042003F017FE08BD08B50520FFF798FF4FF40071052003F00A
S325000138400DFE08BD08B50620FFF78EFF4FF40071062003F003FE08BD08B50720FFF784FF3B
S325000138604FF40071072003F0F9FD08BD7047704700B583B002230093044B054A0549064870
S3250001388001F05AFF03B05DF804FB00BF40150200481502003C1502005438FE1FF0B583B087
S325000138A000232B4A01212B4801F028FD0021084601F032FD7A2006F0C5FAFFF7B1F9FFF74A
S325000138C0D7FF06F051FD0025009506F0E5FCFFF709FC162006F056FB1F2006F01DFC05F07B
S325000138E0DFFFFFF7C3FFFEF737FA1B4806F036FD1A48FEF7BDFE01210DF10700FFF7BAFC94
S32500013900FEF7C4F9FEF7C0F9154F164E01E0FEF799FD384606F0E6FE0321684606F02AFDC5
S32500013920FFF799F901210DF10700FFF7A3FCFEF745FDFFF79CFFFEF7ABFA009C621B338806
S325000139409A42E4D3FEF7CAF9FEF79FF92546DEE77C0800205013FE1F571D0100551D01004C
S32500013960010000803010FE1F70B596B00C4615461E4605A9FEF732FF9DF868308DF80C3024
S325000139809DF86C308DF80D309DF870308DF80E309DF874308DF80F309DF878308DF8103036
S325000139A09DF87C308DF811309DF880308DF812309DF884308DF81330059B6BB124F00041CB
S325000139C003AB019300230093324641EAC57105A8FEF71AFE16B070BD0120FBE76AB110B57F
S325000139E0B0F5805F0BD24B1E0344B3F5805F01D3082010BD06F0A4FCFBE7092070470920DE
S32500013A00F7E708B5A0F50063B3F5006F09D24B1E0344B3F5805F01D3082008BD06F080FCB0
S32500013A20FBE70920F9E7B0F5006F01D30920704708B500F50060FFF7D1FF08BDB0F5006F1B
S32500013A4001D30920704708B500F50060FFF7D9FF08BD00004FF0E023D3F8882D42F470029C
S32500013A60C3F8882DD3F8342F22F08042C3F8342F084B094A5A605A6842F220121A604FF668
S32500013A80FF729A60054AD2F8003843F4F803C2F8003870470020054020C528D900D000402D
S32500013AA01B4A1369C3F30343591C1369C3F30363013B052B2BD8DFE803F025030D2A2A1251
S32500013AC0134BD3F8083203F00103002B114A18BF134618E00E4BD3F808330F4B13E00C4AD5
S32500013AE0D2F80836D2F80826C2F3044202F110000A4A02FB00F2C3F3022301335B00B2FB67
S32500013B00F3F300E0054BB3FBF1F3054A136070470040064000127A00006CDC02005A620263
S32500013B208C10FE1F4FF0E021D1F80C2D92B2024B1343C1F80C3D70470400FA0570B584B087
S32500013B4006460D465D4B53F820404C238DF80C304D238DF80D300023029304AB034402A9B1
S32500013B6013F8040C01F050FC2B78029ADA400292226C22F060025B0103F060031343236468
S32500013B806B78002B08BF0123626C22F0FF0213436364226C22F00C02AB789B0003F00C03B9
S32500013BA013432364226C22F00302EB7803F0030313432364D4F8902022F040022B799B0133
S32500013BC003F040031343C4F890306B79302200924FF4405201923A4A926904A901EB860107
S32500013BE051F8101C22EA0102002E43D0012E4FD0334B9A61AA79012100914FF48071019196
S32500013C009B6904A901EB860151F8101C23EA0103002E39D0012E45D0294A9361D4F8903085
S32500013C2023F00403EA79002A14BF042200221343C4F89030D4F8902022F003022B7A03F0BE
S32500013C4003031343C4F89030D4F8943023F008036A7A002A14BF082200221343C4F89430D4
S32500013C6036B9AB7A1BB3164A536843F40023536004B070BD1B0103F03003134310498B6175
S32500013C80AA798B6923F0010302F001021343C3E71B0303F44053134309498B61AA798B69A7
S32500013CA023F48073120202F480721343B4E7044A536823F400235360DAE700BF041002007A
S32500013CC00080044030B4144B53F8204050881578A0F570639BB2052B0BD8104A536823F4D2
S32500013CE0E02353605368A0F5706043EA00405060152004EB8101D1F8083100F03F0023F0E0
S32500013D007F030343002D14BF402200221343C1F8083130BC704700BF0410020000800440CC
S32500013D20044B53F82030623153F82130C3F30B0313807047041002002DE9F04782B04E4B27
S32500013D4053F82040D4F89460C6F38006D4F8943003F00309D4F89080656CEDB2D4F8943047
S32500013D6043F00303C4F89430D4F8943043F00403C4F89430D4F8903023F04003C4F89030DB
S32500013D80636C23F0FF0343F00C0363640023C4F8B430C4F8B830C4F8BC30C4F8C030C4F8B8
S32500013DA0C430C4F8C830C4F8CC304C228DF804204D228DF805200093276C4FEA571A02ABEF
S32500013DC01844694610F8040C01F01EFB009B0AF0030A23FA0AFA294A924512D9284A934270
S32500013DE008D9284A934245D9274A934294BF0323002300E00123226C22F0600242EA43130C
S32500013E002364D4F8943043F08003C4F89430D4F8943013F0800FFAD1236C23F0600307F065
S32500013E2060071F432764D4F8943023F00403002E18BF04261E43C4F89460D4F8943023F09A
S32500013E40030349EA0303C4F89430D4F8903023F0400308F0400848EA0303C4F89030002D99
S32500013E6008BF0125636C23F0FF031D43656402B0BDE8F0870223BEE70410020040787D015D
S32500013E8081F0FA0203E1F50507C2EB0B074B5B69DBB2042B06D0802B06D0012B0CBF0120D0
S32500013EA004207047022070470320704700E00740044BD3F8000110F080701CBF024B186893
S32500013EC0704700BF004006402038FE1F10B584B00C46002944D0444BD3F80031C3F34063FE
S32500013EE0002B7CD1404AD2F8001121F40001C2F800114FF08061C2F800113C4A00211160FA
S32500013F0000286FD0627A120202F4E062217A01F007010A433448C0F80421E279120102F071
S32500013F203002A179C90001F008010A436179890001F004010A43C0F808212279012A2FD0D2
S32500013F4051B211B3022A36D02268284B1A60284CFFF7AEFF00283DD1002C39D0013CF7E74D
S32500013F6000238DF804308DF80C3001228DF808208DF809208DF805208DF8063002238DF810
S32500013F8007301C4B00936C46A5E7227B002A18BF4FF4000343F00103134AC2F80031D3E78E
S32500013FA0227B002A18BF4FF4000343F001130E4AC2F80031C8E7227B002A18BF4FF40003F9
S32500013FC043F4403343F00103074AC2F80031BBE7032005E0002C14BF0020032000E00220CF
S32500013FE004B010BD0020FBE7004006402038FE1F88E7300000127A00074BD3F8000210F0F2
S32500014000807007D0D3F8080200F001000028034B18BF1846704700BF0040064000127A00D9
S3250001402010B582B00A4600293DD02D4BD3F80032C3F34063002B4DD12949D1F8004224F450
S325000140400004C1F800420024C1F80042002844D09178090201F4E061507800F007000143B2
S325000140601F48C0F80412117801F00101C0F80812507991791279A24214BF03220122A04277
S325000140800CBF184604200243A14218BF4FF400031343134AC2F800326424FFF7ADFFA0B965
S325000140A08CB1013CF9E700228DF8042001238DF805308DF806208DF801308DF802308DF859
S325000140C000306A46B1E7032005E0002C14BF0020032000E0022002B010BD0020FBE700BFD5
S325000140E000400640044BD3F8000310F080701CBFD3F808330148704700400640006CDC0275
S3250001410010B582B00C46002933D02A4BD3F80033C3F34063002B47D1264AD2F8001321F4B2
S325000141200001C2F800134FF08061C2F8001300283DD0A278120202F4E062617801F0070150
S325000141400A431C49C1F80423227802F00302C1F80823A1796279002A14BF012209220029E8
S3250001416018BF4FF400031343124AC2F8003314240EE001238DF8053000228DF806208DF826
S3250001418001308DF802308DF800206C46BDE7013CFFF7A8FF18B9002CF9D1032005E0002C60
S325000141A014BF0020032000E0022002B010BD0020FBE700BF0040064008B50F4BD3F8003602
S325000141C013F0807301D1184608BDFFF771FE03460028F8D0084AD2F80806C0F3022001301F
S325000141E0B3FBF0F0D2F80836C3F30443103300FB03F04308E7E700BF0040064030B585B07C
S325000142000D4699B13D4BD3F80046C4F34064002C70D1D3F8002622F40002C3F800264FF070
S325000142208062C3F80026A0B9002064E000238DF804308DF80B3001228DF808208DF80920DD
S325000142408DF8053007228DF806208DF8073001ADD8E7FFF72DFE6B791B0203F4E0632A79A1
S3250001426002F0070213432549C1F804366B781B0203F4E063AA78120402F4F8121343C1F804
S3250001428008362B78012B16D05AB24AB1022B1DD04FF47A74FFF790FF38BB24B3013CF9E766
S325000142A0EB79002B18BF4FF4000444F00104134BC3F80046ECE7EB79002B18BF4FF4000432
S325000142C044F001140D4BC3F80046E1E7EB79002B18BF4FF4000444F4403444F00104074B89
S325000142E0C3F80046D4E7032005E0002C14BF0020032000E0022005B030BD00BF00400640C8
S325000143002DE9F04180460D468C7801344E7806FB04460F7807FB0447CB78013B052B1CD875
S32500014320DFE803F00312151B1B18FFF7C1FD0009B8F1020F48D0B8F1030F78D0B8F1010FF9
S325000143400DD00020BDE8F081FFF756FEEFE7FFF7C9FEECE7FFF730FFE9E70020E7E7EA784E
S3250001436002EB4201544B53F821301B0904FB03F48442C0F08F800B464F4901EB83035B680E
S325000143801B0906FB03F68642C0F0868002EB420301EB83039B681B0907FB03F787427DD39A
S325000143A0AB781B0403F47023120602F0706213432A7802F00F0213436A781201D2B213432E
S325000143C03E4A53610020BDE7EA7802EB42013C4B53F821301B0904FB03F4844260D30B46BD
S325000143E0374901EB83035B681B0906FB03F6864258D302EB420301EB83039B681B0907FB23
S3250001440003F7874250D3AB781B0403F47023120602F0706213432A7802F00F0213436A78D4
S325000144201201D2B21343254A936100208AE7EB7803EB4301234A52F82120120904FB02F4F7
S32500014440844233D30A461F4901EB82025268120906FB02F686422BD303EB430201EB82022A
S325000144609268120907FB02F7874223D3AA78120402F470221B0603F0706313432A7802F0D5
S325000144800F0213436A781201D2B213430B4AD361002057E7012055E7012053E7012051E7E7
S325000144A001204FE701204DE701204BE7012049E7012047E7012045E7181102000040064058
S325000144C06C110200C410020038B50546FFF7DEFC2946FFF715FF044678B9E8780A220849A7
S325000144E0013A0B69C3F30363984203D0002AF7D1032402E0002A08BF0324204638BD00BF10
S325000145000040064010B504461B4B1B69C3F30363013B052B1ED8DFE803F00314171D1D1A5B
S32500014520FFF7C6FC144B1B69C3F303430133B0FBF3F0012C10D063B213B1022C14D0002003
S3250001454010BDFFF759FDEDE7FFF7CCFDEAE7FFF733FEE7E70020E5E7074B1B69C3F3031354
S325000145600133B0FBF3F0EBE7034B1B6903F00F030133B0FBF3F0E3E70040064008B5084BA7
S32500014580D3F8D801C0F3807040B103F588331B681B0E14BF01200020FFF7B4FF08BD00BF3C
S325000145A00050064008B50F4B1B6AC3F30363062B15D8DFE803F004080B0E1414110002204E
S325000145C0FFF7A0FF08BDFFF773FCFBE7FFF714FDF8E7FFF787FDF5E7FFF7EEFDF2E700201D
S325000145E0F0E700BF0040064008B519B1012931D0002008BD0438032857D8DFE800F01002A2
S325000146001922FFF76FFD02462A4BD3F8040300F007000028EDD0431E22FA03F0E9E7FFF755
S32500014620EBFC0246234BD3F8040200F00700F0E7FFF73EFC02461F4BD3F8040100F007008E
S32500014640E7E7FFF7B9FD02461A4BD3F8040600F00700DEE70438032829D8DFE800F00B026F
S32500014660141DFFF73FFD0246124BD3F80403C0F30220CEE7FFF7C0FC02460E4BD3F80402AB
S32500014680C0F30220C5E7FFF713FC0246094BD3F80401C0F30220BCE7FFF78EFD0246054B90
S325000146A0D3F80406C0F30220B3E70020A1E700209FE700BF0040064008B5114B1B69C3F3C9
S325000146C00113032B19D8DFE803F00207101300210620FFF789FF08BD094B186900F0020069
S325000146E0002818BF4FF4FA40F5E7064B1868F2E700210520FFF778FFEDE70020EBE700BF79
S32500014700008004402438FE1F08B50B4B186A10F080600FD003F538331B681B0E4FF00001B2
S3250001472014BF05200720FFF75FFF044B5B6A0133B0FBF3F008BD00BF00800440006007403A
S3250001474038B51C4B33F810309B0003F1804303F5CA231D68C5F3C0051C6804F00704AC42E9
S3250001476025D31868C0F3807010B31B68C3F30263013B052B19D8DFE803F0030C101818143C
S325000147800620FFF731FF0134B0FBF4F005FB00000EE00420FFF728FFF5E70520FFF724FFB9
S325000147A0F1E70720FFF720FFEDE70020EBE7002038BD00BF0C1002000F4B1B69C3F381030E
S325000147C0022B07D0032B0ED0002B0CBF4FF4FA3000207047084B186900F00200002818BFC3
S325000147E04FF4FA407047044B186900F00200002818BF4FF4FA4070470080044008B52D4B90
S32500014800586810F4006054D05B68C3F303130F2B09D8DFE803F00A080D08122F171C202505
S32500014820453329362C3E00203CE0FFF7BBFE39E001210620FFF7D8FE34E001210420FFF7C8
S32500014840D3FE2FE001210520FFF7CEFE2AE00020FFF758FE26E001210720FFF7C5FE21E0E9
S325000148600120FFF74FFE1DE0FFF7A6FF1AE0FFF723FF17E0FFF748FF400813E0FFF77EFE42
S3250001488010E0FFF741FF0C4B1B681B0E0AD0400808E0094B1868000E04D0FFF735FF01E01D
S325000148A04FF4FA30034B5B68C3F302230133B0FBF3F008BD0080044000600740F0B5A1B0B0
S325000148C0D8B104460646974B1B69C3F30363032B40F0B2803146E078FFF7A2FB05460028CB
S325000148E000F0C880FFF7D2FA022800F0DF80032840F0828204F13E0683E201238DF80B305D
S3250001490000228DF80C208DF80D308DF80E208DF808308DF809308DF80A308DF816308DF8BE
S3250001492014308DF815208DF80F208DF810308DF811308DF838300D928DF825307A49069173
S325000149408DF81C208DF824208DF81D308DF81E2002208DF81F008DF820308DF821308DF83B
S3250001496030308DF828208DF82F208DF829200C218DF82A108DF82B208DF82C308DF82D30E2
S325000149808DF83D3003218DF83C108DF84B308DF841108DF840208DF83F308DF83E308DF802
S325000149A045008DF844308DF843208DF8421006208DF849008DF848208DF847308DF846103B
S325000149C05A491E9129211D918DF84C308DF84D208DF84E208DF84F208DF850308DF854309E
S325000149E08DF853308DF852208DF851208DF868308DF869308DF86A308DF86B308DF86C3020
S32500014A008DF86D308DF873308DF858301792189219928DF86E308DF86F308DF870208DF859
S32500014A2071208DF872208DF87C308DF87D308DF87E2002AC264646E7FFF754FB28B90021B3
S32500014A400120FFF75DFB054688B903238DF8073000228DF8062001228DF805208DF804301F
S32500014A6001A8FFF731FD054600283FF433AF284621B0F0BD04F11001607FFFF727FA0546A7
S32500014A8000287FF42FAF04F1200194F82800FFF7B5FB0546FFF7FAF9022807D003283FF493
S32500014AA029AF012800F0AB810026AAE104F13A06A7E106238DF8073002238DF8063001237B
S32500014AC08DF805308DF8043001A8FFF7FDFC0546637F83B1012840F0A98101238DF8073000
S32500014AE000228DF806208DF805308DF8043001A8FFF7EAFC0546E378002B00F09781012DE3
S32500014B0040F0948102238DF8073000238DF806308DF8053001238DF8043001A8FFF7D4FC84
S32500014B20054683E10040064000127A009010FE1F8DF80730B3788DF8063073788DF80530A9
S32500014B4033788DF8043001A8FFF7BEFC054600288DD1E11DA07BFFF7D3FA0546002D86D115
S32500014B6094F8303013B1E26A9C4B1A6094F8353053B19B490A6A22F0706294F834301B068F
S32500014B8003F0706313430B6294F84330002B40F00B81236F002B38D0E36E002B35D0002237
S32500014BA09049914802EB8206236F9B5D31F813309B0003F1804303F5CA231F6827F0804735
S32500014BC01F60236F03EB060C9F5D9CF802301B0603F0E0639CF80360F60006F0080633433D
S32500014BE09CF8046006F0070633439CF80160002E14BF4FF080460026334331F8176040F8CE
S32500014C0026300132E36E9A42CCD394F84430C3B194F8463094F847207449486820F47F606F
S32500014C2094F84510002914BF4FF4006100211B01DBB2120202F4E062134303430B436B4A37
S32500014C40536094F84830DBB194F84A3094F849206649096921F03F0194F84C00084394F8EE
S32500014C604B10002914BF022100219B0003F00C030343120102F0300213430B435B4A1361BB
S32500014C8094F86030002B44D0584B196C21F0010194F861200A431A641B6C23F0020394F874
S32500014CA06220002A14BF0222002213434F4A1364136C23F0040394F86320002A14BF0422F7
S32500014CC000221343494A1364136C23F0080394F86420002A14BF082200221343434A1364FB
S32500014CE0136C23F0100394F86520002A14BF1022002213433D4A1364136A23F0806394F853
S32500014D006B20002A14BF4FF0806200221343374A136294F8503033B1354B626D1A60A26DAD
S32500014D205A60E26D9A6094F86630EBB12F4A936E00209066516821F4805194F868301B033A
S32500014D4003F480530B435360906694F867305BB194F869305B0003F00E0394F86A2013436C
S32500014D6043F08053214A936694F87430002B3FF47EAE20498B7803F07F0394F8752082F094
S32500014D80010243EAC213DBB28B7094F97630002BBCBF20335BB217490A7903F01F0302F05C
S32500014DA0E00213430B7162E604F136010120FFF7A7FA08B105465AE604F13A010220FFF780
S32500014DC09FFA48B904F13E010320FFF799FA00283FF4DFAE05464AE6054648E62438FE1FFD
S32500014DE0004006400C10020000500640008004402838FE1F00D0074001287FF438AE04F1A3
S32500014E003606002D7FF433AEF378032B7FF490AE94F82830002B7FF44CAE637F002B7FF488
S32500014E205CAEE378002B7FF46DAE0125002D7FF41EAEE11DA07BFFF763F9054600287FF46A
S32500014E4016AEF3788DF80730B3788DF8063073788DF8053033788DF8043001A8FFF734FBA3
S32500014E6005467BE670B504460D46112807D92B2840F284805A2840F2C981042070BD112893
S32500014E8079D8DFE800F00912181E23282D32373B40474E555C636A710020FFF733FB034645
S32500014EA00020002DEAD02B60E8E70120FFF72AFB03460020F5E70220FFF724FB0346002069
S32500014EC0EFE7FFF79BFC03460020EAE7FFF794F803460020E5E7FFF705F903460020E0E753
S32500014EE0FEF7E6FF03460020DBE7FFF765F903460020D6E7B24B1B680020D2E7FFF752FB90
S32500014F0003460020CDE700210420FFF76DFB03460020C6E701210420FFF766FB03460020AE
S32500014F20BFE700210520FFF75FFB03460020B8E701210520FFF758FB03460020B1E7002174
S32500014F400620FFF751FB03460020AAE701210620FFF74AFB03460020A3E700210720FFF734
S32500014F6043FB034600209CE701210720FFF73CFB0346002095E70023042092E7A0F115043B
S32500014F80162C00F20B81DFE814F0170023002F003B00460052005E006A0076007F00840002
S32500014FA090009D00AA00B300BE00C900D400DF00EA00EF00F400FE00824BDB68C3F3016331
S32500014FC0022B00F2EE80804A52F82330002056E07C4BDB68C3F38163022B00F2E5807A4A94
S32500014FE052F8233000204AE0764BDB68C3F30173022B00F2DC80744A52F8233000203EE081
S32500015000704BDB689B0F022B00F2D4806E4A52F82330002033E06B4BDB68C3F30143022BC6
S3250001502000F2CB80684A52F82330002027E0654BDB68C3F38143022B00F2CC80624A52F8E8
S32500015040233000201BE05F4BDB68C3F30153022B00F2C3805C4A52F8233000200FE0594B8C
S32500015060DB68C3F38153022B00F2BA80564A52F82330002003E0FFF7C1FB03460020002D7B
S325000150803FF4FCAE2B60F9E6FFF716FB03460020F5E74E4B9B78DB0902D000231846EEE7BE
S325000150A0FFF78AFB03460020E9E7484B9B78DB0940F09980434B1B6913F0010340F0968003
S325000150C00020DCE7414B9B78DB0940F093803D4B1B6913F0020340F090800020CFE73B4B70
S325000150E09B78DB0940F08D804FF4FA330020C6E7344B1B6CC3F3001313B100231846BEE77F
S325000151004FF48070BBE72F4B1B6CC3F3C00313B100231846B3E74FF48070B0E7294B1B6C95
S32500015120C3F3800313B100231846A8E74FF48070A5E7244B1B6CC3F3400313B10023184668
S325000151409DE74FF480709AE71E4B1B6C13F0010302D00023184692E74FF480708FE7FFF7AE
S32500015160D3FA430800208AE7FFF708FA0346002085E7FFF7C9FA0346154A1268120E43D0A4
S32500015180430800207BE7124B1B681B0E01D1002075E7FFF7B9FA0346002070E70023042034
S325000151A06DE7002318466AE70023184667E70023184664E70023184661E7002318465EE798
S325000151C02438FE1F008004402838FE1F00D00740006007400023184651E7002318464EE7E1
S325000151E0002318464BE70023184648E74FF47A73002044E70023184641E74FF4FA43002081
S325000152003DE7002318463AE7002038E72C285CD9A0F13903DBB2122B63D8344A22FA03F397
S3250001522013F0010F58D1324B33F81420314B53F8223013F0804F51D02F4B1E5D16F0200F19
S3250001524012D116F0400F18D116F0800F1ED116F0180F37D016F0080F21D116F0100F26D143
S3250001526000234FF4807032E00120FFF74BF903460028ECD14FF4807029E00020FFF742F9A9
S3250001528003460028E3D14FF4807020E00220FFF739F903460028DAD14FF4807017E00021FE
S325000152A02046FFF74DFA034616F0100F04D001212046FFF745FA0346002B14BF00204FF49B
S325000152C0807004E00023184601E004200023002D3FF4D4AD2B60D1E50420F7E74FF48070F3
S325000152E0F4E75A2808BF0420F0D09CE7410104000C10020000500640C011020010B4054C3A
S3250001530020602171A2602373637300205DF8044B704700BFB80400202DE9F04182B007462A
S325000153200E468DF804008DF8051003F0E9F9354B1C7B5C7301238DF80630002C52D00024E3
S32500015340304D04E00134E4B22B7BA3424AD9AB6853F82430002BF5D01A79022AF2D01A68C7
S32500015360996801A890470028ECD06C73002EE9D140F2031540E002238DF80630214B1B7BAE
S32500015380EBB100241F4F04E001343A7BE3B29A4215D95FFA84F8BB6853F82830002BF3D022
S325000153A01A79012AF0D01A68996801A890470028EAD087F80D80002EE6D14FF4827503F065
S325000153C091F9284602B0BDE8F081043C14F1040FF5D0B3681B59002BF7D01A68996801A83C
S325000153E09047F2E7074D2B6853F82700FFF766FA6F7105460028BED000238DF80630A400E4
S32500015400004EE6E7B804002008B5FFF72BFD08BD29B14118002300F8013B8142FBD170471E
S3250001542008B5084B1B6853F8203000F00F00064A1077D07723B15A6812B1197B9868904756
S3250001544008BD00BFC80400200080004038B5054600F00F0400222146094800F0D6F9094BED
S325000154601B6853F8253053B1054A1477D477947701221A735A6812B1197B9868904738BD39
S3250001548000800040C80400202DE9F04F85B09DF838600F9D0124B4405FFA84FCB5FBFCF761
S325000154A00CFB17571FB1012005B0BDE8F08F039302928946804600F00F07DFF8FCA03946EF
S325000154C0504600F0A7F9DAF8003023F08003CAF800307B0103F1804202F5004B02F5104258
S325000154E002991160534441F21002039999500196009600231A463946504600F0C1F9B9F11F
S32500015500030F12D8DFE809F0022B3B4A41F2040300222BF8032064B2A4B27B0103F18043D5
S3250001552003F5004341F214029C52234C2A463946204600F0BDF901223946204600F0E6F9B1
S3250001554004EB471741F21C02BB5A43F00203BB521A4B1B6853F8283000201873A4E764B275
S32500015560A4B241F204032BF803407B0103F1804303F5004341F2140200219952D5E764B299
S32500015580A4B241F204032BF803407B0103F1804303F5004341F214029C52C6E7002241F267
S325000155A004032BF803207B0103F1804303F5004341F214015A52B8E700800040C8040020EA
S325000155C070B582B00546079C01949DF818400094FFF75AFF064610B1304602B070BD05F0C3
S325000155E00F050F4C089A2946204600F08FF904EB451441F21C03E35A23F008031B041B0C0B
S325000156009DF82420002A14BF082200221343690101F1804101F5004141F21C028B52DBE7C7
S325000156200080004008B5012200F00F01024800F0ECF8002008BD00BF0080004008B5002262
S3250001564000F00F01024800F0E0F8002008BD00BF0080004010B40F4B1C5C04F07F041C5450
S325000156601C5C01F03F0104F0C004214319541B5C03F0BF03002A14BF402200221A43054B97
S325000156801A541A5C42F080021A5400205DF8044B704700BF001002402DE9F04180460C4612
S325000156A04D7805F00F061021FFF7B2FE227BA1786078FFF7CFFF074631461D4800F0AAF830
S325000156C017B13846BDE8F0811A4B1B6843F8258053F82520157053F8253000221A73144DDA
S325000156E001223146284600F08BF82B6813F0040F11D12378FF2B0ED086F0030606F18046BE
S3250001570006F5004696F8002103F00F0302F0F002134386F800316568A1686278054B1B6821
S3250001572053F82200456053F822309960C9E700BF00800040C8040020F8B50C4617461E46DF
S32500015740234B18604021FFF763FE224D284600F086F82A6822F0040223789B0003F004037F
S3250001576013432B602B6823F010036278002A14BF1022002213432B60102002F099FF164D5F
S32500015780AC1E1E3534F9020F02F092FFA542F9D1124800F0EAF8AFB1B6B1069BB3B13C1F20
S325000157A0351F07EB8307043F002655F8041F54F8040FFFF771FF002818BF0646BC42F4D166
S325000157C03046F8BD0026FBE70026F9E70026F7E7C8040020008000401C1202000010024057
S325000157E000F00F00400100F1804000F5004041F20C03C150704700000048704700800040B3
S325000158000AB141767047017670470AB1C17670478176704700EB4111002341F208028B505B
S3250001582001F58052136041F204028B5241F206028B5241F20C028B5041F210028B5041F289
S3250001584014028B5241F216028B5241F218028B5041F21C028B5241F21E028B52704738B5FC
S325000158600546036823F4403323F0C60303600024E1B22846FFF7CEFF0134102CF8D138BD8B
S3250001588010B4DB00DCB29DF8083003F00703234343EAC2239DF80420120202F4E062134337
S325000158A09BB2803100EB4111CB805DF8044B7047036813F0800F23D010B400EB411341F2DA
S325000158C008041B59002B0BDB00EB41131B5913F0804F05D122F0404200EB411002510CE0C6
S325000158E000EB411041F20801435823F47F7323F00303C2F30902134343505DF8044B704768
S3250001590000EB411041F20803C250704710B400EB411441F21E03E35A13F4004F14D100EB82
S32500015920411041F21E01435AC2F30E0203F400431343435241F21601435A03F400431A43B8
S3250001594042525DF8044B704741F21E01635AC2F3080203F47E431343635241F21601635AB9
S3250001596003F47E431A436252EBE700231A46C2540133102BFBD1704708B50020FFF750FDDA
S3250001598008BD08B50120FFF74BFD08BD08B50220FFF746FD08BD08B50320FFF741FD08BDA4
S325000159A008B50420FFF73CFD08BD08B50520FFF737FD08BD08B50620FFF732FD08BD08B5B0
S325000159C00720FFF72DFD08BD08B50820FFF728FD08BD08B50920FFF723FD08BD08B50A2047
S325000159E0FFF71EFD08BD08B50B20FFF719FD08BD08B50C20FFF714FD08BD08B50D20FFF77C
S32500015A000FFD08BD08B50E20FFF70AFD08BD08B50F20FFF705FD08BD38B50020FFF7ECFE6B
S32500015A20C56A002407E02046FFF710FD6D080134E4B2102C03D015F0010FF7D0F3E738BDC2
S32500015A4003680B6043684B6083688B60C3680B6103698B612E4BDB6CC3F303330F2B4ED842
S32500015A60DFE803F0080F13171B2125292D3135393D4145494FF40023CB6000234B61002042
S32500015A8070474FF0FF33CB60F7E74FF0FF33CB60F3E74FF0FF33CB60EFE74FF4E023CB6075
S32500015AA04FF48053EAE74FF0FF33CB60E5E74FF0FF33CB60E1E74FF0FF33CB60DDE74FF08D
S32500015AC0FF33CB60D9E74FF0FF33CB60D5E74FF0FF33CB60D1E74FF0FF33CB60CDE74FF067
S32500015AE0FF33CB60C9E74FF0FF33CB60C5E74FF0FF33CB60C1E74FF40023CB60BDE7CB689E
S32500015B00044A934294BF4FF480530023B6E700BF00800440FFFF070012F0070F50D12DE95B
S32500015B20F84306468068884208D8F46804448C4204D901F50001091A00200AE03068814277
S32500015B4006D3746804448C4215D9091A002000E001205D420F465418DFF86880DFF8689053
S32500015B60A74206D028B998F8003013F0800F04D10220BDE8F8830120EBE7702388F80030DF
S32500015B80072388F80730C7F3074388F80630C7F3072388F80530FBB288F80430E84305EB4E
S32500015BA0090CC5F107020CEB000110F8013F0B708242F8D130460CF00FFC0837083DCFE70B
S32500015BC00120704700000240090002402DE9F84F9DF82CB012F0030A03D001231846BDE882
S32500015BE0F88F064614461F46D0F80880414516D3C3684344994212D201F50005A5EB080544
S32500015C000023DFF8A49034B12BB999F8003013F0800F0FD102230A9AC2F800A0DEE7D6F89D
S32500015C200080414537D373684344994235D2A1EB0805E5E7702389F80030022389F8073083
S32500015C40C5F3074389F80630C5F3072389F80530EBB289F8043089F80BB03B78104A1370CE
S32500015C607B7801321370BB7801321370FB780132137030460CF0B0FB034640B1094A9542E1
S32500015C8086BFA8F5000AAA4408EB050ABBE7043C04370435B7E70123BDE70123BBE700BFE0
S32500015CA00C000240FFFF7F000000024070B5184E367816F0800F26D01D460C46144B702167
S32500015CC019708121D9719C71552C15D00CF084FB772C19D1C0B9C5B10D4B9A7A2A70DA7B83
S32500015CE01202AA80997B0A43AA805A7A12026A801B7A1A436A8007E0110AD972D2B29A7249
S32500015D000CF06AFB00E0022070BD0120FCE700BF000002402DE9F84F1E462F4B93F801A080
S32500015D201AF0010A3DD081460C46174603698B423AD88A1841690B449A4237D8002F3BD0B9
S32500015D404FF0020BDFF8908014E0984798F8013013F0010F05D1D9F81830B3F1FF3FF5D0CC
S32500015D60F3E798F8000000F071002C442E447F1B11D0A0B914F0030F01D1032F1ED814F087
S32500015D80010F15D1012F13D97278337843EA022323805D46DAE7003018BF012002E00120D1
S32500015DA000E00420BDE8F88F0120FBE70120F9E7337823705546C9E70020F3E7F278B37890
S32500015DC01B0443EA026332781343727843EA022323600425BAE700BF0000024038B50D4C3B
S32500015DE0247814F0800F12D00A4C702525708025E571A3719DF8103063719DF8143083F007
S32500015E0001032371E172A2720CF0E6FA38BD0220FCE700BF000002402DE9F04186B00E46D4
S32500015E2015469846224B53F82040224B53F82070384600F08DFE864235D204EBC604637965
S32500015E40002B33D11F2E04D806F01F02012393403B63022363719DF83430A371EB7AE37178
S32500015E606A6804922A788DF80C202A7A8DF814206A7A8DF81520AA7A8DF81620002B14BF88
S32500015E801C230C2302930C9B0093434602AA3146384600F0F9FF034608B100226271184657
S32500015EA006B0BDE8F0814FF44073F8E70223F6E7CC0400203C1202002DE9F8430C4690467F
S32500015EC01F461B4B53F820501A4B53F82060284600F03EFE844220D22B6813F0005F06D0E8
S32500015EE06B6BC3F303635B0007339C4218D906EBC40999F80530B3B9012289F8052046F84E
S32500015F00348089F806702146284600F0B3FE034650B1002289F8052006E04FF4407303E088
S32500015F204FF4407300E002231846BDE8F88300BF3C120200CC04002070B50646264B53F8B5
S32500015F40204094F811317BB16379DBB2032B1ED100232360A379002B39D16379DBB2032BCC
S32500015F601CBF0023637170BD1C4B53F8205000220521284600F07EFE00220621284600F030
S32500015F8079FE00220721284600F074FEE0E7256894F81001FFF752FB2B6813F4001F02D1A9
S32500015FA06A68920C6A60C3F3034385F84830AB681BBAAB60EB681BBAEB60D4F80051002DFF
S32500015FC0C6D02346002208213046A847C0E7201D03F036FDC1E700BFCC0400203C1202005A
S32500015FE038B50C460A4B53F820500022094B53F8200000F03FFEE1006C18A37913B90023CD
S32500016000637138BD081D284403F01AFDF7E700BFCC0400203C12020070B50D46244B53F806
S3250001602020402668204600F07BFE16F4006F20D0236D03F000432365216D2B689B029BB2DA
S325000160406A68520102F478721343AA6802F01F021343E868174A02EA405213432A69120435
S3250001606002F4F81213430B432365204600F04BFE70BD636823F007031B041B0C6360616867
S325000160802B6803F00703EA6843EA0263AA68120402F4E02213436A68D20402F460121343A9
S325000160A02A69920502F4400213430B436360DCE73C1202000000E07F38B50D46154B53F8B3
S325000160C02040204600F02CFED4F8042C124B1340C4F8043CD4F8041C2B689B0203F4F843E3
S325000160E06A685201D2B21343AA6802F007021343E8680A4A02EA005213432A69120402F460
S32500016100E02213430B43C4F8043C204600F0FBFD38BD00BF3C120200188308C00000F03FF2
S3250001612038B50D46094B53F82040204600F0F8FD3DB9236823F480332360204600F0E3FDCA
S3250001614038BD236843F480332360F6E73C120200F8B50E4615461F46414B53F820402046C0
S3250001616000F0DEFD236803F07F039D4212D81F2D10D8236813F0005F1BD18EB9394B03EABF
S32500016180874705F5087544F82570204600F0BBFD0020F8BD204600F0B6FD4FF44070F8E724
S325000161A0012EF2D127F0604705F5087544F82570EBE7636BDB0D03F01E0307331F2B28BFD9
S325000161C01F239D4212D82368C3F30123022B2BD0032B39D0012B1BD03A460021304600F0CB
S325000161E087FC05F5087544F82500CEE73EB91D4B03EA874705F5087544F82570C5E7012E4B
S32500016200C3D127F0604705F5087544F82570BCE73A460121304600F06BFC40EA104005F557
S32500016220087544F82500B0E73A460221304600F05FFC030C43EA1063034343EA102305F52F
S32500016240087544F82530A0E73A460321304600F04FFC05F508754FF0FF3344F8253094E759
S325000162603C1202000000FC1F2DE9F04782B0814688461746B04B53F820402368002B1DDAE8
S3250001628062687B7A5B0303F4005322F4005213436360204600F072FC204600F041FD204651
S325000162A000F08EFC236823F400633A7A002A60D12360226D22F00042002362E0204600F028
S325000162C02FFD204600F06FFCDAE73979204600F0A9FC0246002870D043E0236813F0005F9C
S325000162E043D0236843F4004323606AE0FB6838697D69BE69FA69616821F007010904090C3A
S325000163006160616803F0070343EA06632D0405F4E0252B43C00400F460100343920502F4C1
S32500016320400213430B436360A1E0204600F0EBFCA5E002F0BDF9A9E002F0BAF9C7E002F0FB
S32500016340B7F9CDE09DB108F1040808EBC505504603F093FB0AF1080A5545F8D1012200E03F
S325000163600122104602B0BDE8F0870122F9E70122F7E743F400632360226D22F000424FF08C
S3250001638000431343236523683A7AC3F3C0239A42E6D1636B23F48053002A14BF4FF48052A0
S325000163A0002213436363BB79022B03D0236843F4003323607B79002B87D197F83430012B56
S325000163C08BD097F834301BB9236823F400432360F979204600F023FD3968204600F0D7FE78
S325000163E002460028BDD1236813F4006F3FF47EAFFB6838697E69BD69FA69216D01F0004103
S325000164002165216D9B029BB2400100F47870034306F01F063343494800EA45552B431204EA
S3250001642002F4F81213430B4323653B6A786ABE6AFD6A3A6BD4F804CC41490CEA0101C4F894
S32500016440041CD4F8041C9B0203F4F8434001C0B2034306F0070633433A4800EA05552B43B4
S32500016460120402F4E02213430B43C4F8043CB979204600F0A5FCBB79032B7FF456AF324BE7
S3250001648033F9190010F1800F7FF453AF4F23ADF800305623ADF802305D23ADF8043002AB0E
S325000164A003EB490333F9080C02F05EF9274B33F9190002F0FDF8264B33F9190002F0F8F8DC
S325000164C0244B33F9190010F1800F7FF435AF09F10303204A32F9130010F1800F7FF42FAF91
S325000164E008F1040A544600252E463146204603F0BAFA024600287FF425AFA67044F8046C5E
S3250001650008EBC5035E7101350834202DEDD197F8343088F8113197F8353088F810310023E0
S32500016520C8F80031C8F80431C8F80831C8F80C31094B43F8298014E73C1202000000E07F96
S32500016540188308C00000F03F64120200501202004812020058120200CC04002010B586B013
S325000165605468049414788DF80C40947A8DF81640147A8DF81440527A8DF8152008220292CF
S325000165800022009202AA034C54F8200000F07CFC06B010BD3C12020070B582B00E460A4C9D
S325000165A054F8205000240194069C0094FFF734FC034610B1184602B070BD012231462846B4
S325000165C000F058FB0346F5E73C12020070B584B00D461E46154C54F820405068029010780D
S325000165E08DF80400127A8DF80C200F2200926A46204600F01BFD034610B1184604B070BDA4
S325000166000023009333466A462946204600F00EFD03460028F1D10423009333466A4629463F
S32500016620204600F003FD0346E7E700BF3C12020008B50023FFF740FC08BD000010B5074BE9
S3250001664053F82040064B53F82020D2F808310BB10A219847204600F083FB10BD3C120200F2
S32500016660CC040020F8B5184B53F82040236813F4804F28D00546154B53F82060D4F8083B8A
S3250001668013F4003F0CD0D4F8083B43F40033C4F8083BD6F800711FB1334600220521B8478A
S325000166A0D4F8083B13F4803F0DD0D4F8083B43F48033C4F8083BD6F8004124B133460022AA
S325000166C006212846A047F8BD3C120200CC0400202DE9F04194B006466B4B53F820506B4B44
S325000166E053F82070AB6A2A6B134013F0010F08BF012440F0C180AB6A2A6B134004F01F0239
S32500016700D34013F0010F16D10134202CF3D166B9D5F8083BD5F8082B5B0C43EA124313F005
S32500016720010F02D00020FFF79DFFEB69B3B13046FFF784FF12E02B6813F0005F01D0072C2C
S325000167400FD907EBC4035B79DBB2012B41D007EBC40898F80530DBB2022B5DD014B0BDE820
S32500016760F081052C0ED0062C24D140232B63D7F80081B8F1000FEAD03B460022022130467C
S32500016780C047E4E77B79DBB2012BE0D13968284600F0F0FA3046FFF7CFFB20232B63D7F803
S325000167A00081B8F1000FD2D03B46002201213046C047CCE7072CCAD180232B63D7F80081B3
S325000167C0B8F1000FC3D03B46002203213046C047BDE72146284600F0D5FC57F834202146DF
S325000167E0284600F087FC0028B1D1AB6821463046FFF7F6FB1F2C04D804F01F0201239340FD
S325000168002B63D7F80081B8F1000FA0D03B46224600213046C0479AE721463046FFF7E0FBB5
S3250001682098F8073083B91F2C04D804F01F02012393402B63D7F80051002D8FD03B462246F8
S3250001684004213046A84789E72146284600F09AFC01AA2146284600F04DFCAB689DF8073044
S3250001686003F00F03042BE5D11F2CE3D804F01F02012393402B63DDE72C6814F000543FF4A4
S3250001688060AF002463E700BF3C120200CC040020074B53F8203003EBC1014B7933B14B796C
S325000168A0DBB2032B0CBF01200220704700207047CC040020024B53F82030186A704700BFAA
S325000168C03C1202002DE9F8434F4B53F8207007EBC1067379002B00F08B800C4605464B4B9D
S325000168E053F820807379DBB2022B08D07379DBB2012B31D01F2C66D90020BDE8F8830F4663
S32500016900FFF76EFB04F01F09012505FA09F51F2C98BFC8F830502146404600F071FB1F2F59
S32500016920FDD8D8F830302B4023FA09F313F0FF0FF5D02146404600F08EFA0368C3F3036305
S32500016940082B40F2013018BF00201F2C98BFC8F8305000237371D0E7FFF742FBD8F80030D0
S3250001696013F0005F2AD0D8F83430C3F303635B0007339C4218D8002CBCD10022052140467A
S3250001698000F078F997F81131012B12D0D8F8283004F01F040126A640334023FA04F4E4B246
S325000169A0012C28D00020A8E72146404600F032FBE1E797F81001FEF741FEE7E7214640469B
S325000169C000F028FB96E7D8F8283004F01F02012696403340D340DBB2012B01D000208CE743
S325000169E021462846FFF7FCFA1F2C08D9002084E740F2013081E700212846FFF7F1FAC8F81D
S32500016A003060002079E700BFCC0400203C120200034B53F82030C3F80011C3F80421704714
S32500016A20CC04002038B50D46214B53F82040214B53F82030C3F80811C3F80C21204600F0EF
S32500016A406FF9DDB101224FF48041204600F02FF901224FF48061204600F029F901224FF46F
S32500016A600061204600F023F901224FF40041204600F01DF9204600F046F938BD00224FF43A
S32500016A808041204600F013F900224FF48061204600F00DF900224FF40061204600F007F90E
S32500016AA000224FF40041204600F001F9E2E700BF3C120200CC040020082817D90938062882
S32500016AC013D8DFE800F00406080A0C0E10000C2070471020704714207047182070472020E3
S32500016AE070473020704740207047002070470000012915D04BB223B1022920D00023184667
S32500016B00704702F0404320B90F4901EAC2421343F5E70128F3D1520022F040421343EEE7F2
S32500016B2002F0404320B9084901EAC2421343E6E70128E4D1054901EA02421343DFE70128FD
S32500016B4094BF13060023DAE70000F83F0000FF3F084B98420AD003F58053984208D00023C2
S32500016B60054A904208BF2023184670472023F7E72023F9E70040024000B00240036813F4A4
S32500016B80801F0FD0036823F000430360036823F080430360036823F080530360036813F086
S32500016BA0006FFBD170470368002B07DB036843F000430360036813F4801FFBD0704700008D
S32500016BC038B50446036843F000730360236813F0007FFBD1236843F4805323602046FFF7B6
S32500016BE0B7FF820008D004F1800303EB0015002143F8041BAB42FBD138B104F508631A4424
S32500016C00002143F8041B9342FBD14FF0FF3323616361A3610022A2622363014B236238BD22
S32500016C2006003B0038B5046814F400641ED10546036843F000530360436B090601F070613A
S32500016C4023F07063194341634FF0FF338364FFF77FFF80B260B16FF0604204F5087345F886
S32500016C60232001348442F8D1002000E0012038BD0020FCE7036803F07F038B4212D31F2913
S32500016C8013D801F01F01012303FA01F122B1836A1943816200207047836A23EA0101816229
S32500016CA0002070474FF44070704700207047AAB1B1F5806F02D0B1F5006F03D1036843F428
S32500016CC000130360B1F5804F03D04368194341607047436B43F000434363F6E7436823EA31
S32500016CE001034360B1F5804F08D0436813F4406F03D1036823F4001303607047436B23F0F4
S32500016D0000434363F1E7036823F080530360036823F080430360036813F0807FFBD1704763
S32500016D20036843F080430360036843F0805303600368002B0EDB0122036813F0807FFBD0DA
S32500016D403AB9036843F000430360036813F4801FFBD07047036823F0004303600022EBE74A
S32500016D60026A034B134013B1014B0362036A704706003B00F8B507460E4600F1880401F168
S32500016D800805D0F88000C0F30340FFF795FE86F84800D7F88030336013F4001FD7F8843097
S32500016DA008BF9B0C7360064648B10023990854F8212012BA45F8212004339E42F6D8F8BD11
S32500016DC008B5042906D8DFE801F00B181D030600FFF7A6FF08BD036843F000430360F9E75F
S32500016DE0036823F400030360436823F008034360436823F480534360ECE7436843F0080344
S32500016E004360E7E7436843F480534360436823F008034360036823F400330360DAE70268F3
S32500016E2012F4006F07D0D0F8003C23F4403343EA0143C0F8003C7047036813F4006F07D09D
S32500016E40D0F8000CC0F30140C31C0120984000E00820C0B2704738B504460D46FFF7ECFFEF
S32500016E600830C0B24FF40073B3FBF0F3DBB2B5FBF3F203FB12538008D20100FB03202030CC
S32500016E8004EB800038BD00002DE9F8430746894614469846089EFFF7DEFF3B6803F07F0351
S32500016EA04B45C0F0968005463B6813F0005F40F097803B6813F4006F07D0A37B2BB1D7F825
S32500016EC0003C43F00043C7F8003CD4F808905FFA89F3402B9ABF484AD75CFF2776B338466F
S32500016EE0FFF7EAFD39F003030DD0002399088A00083256F8211009BAA9500433A26822F08C
S32500016F0003029A42F2D805F10801A2689A420BD95A1E164483F0030216F801CF01F802C013
S32500016F200133A2689A42F5D80646904206D982F00303607BC8540132B242F8D100232B6059
S32500016F406B602379012B31D0002223796BB96B6823F0FF5323F4E0136B606A68274B03EA76
S32500016F60884848EA02026A60002223680F2B2ED03F0407F4702717431C2B08BF47F4801746
S32500016F80227BFAB11B0603F070633B4343F00043A27B0AB143F080432A6813432B60002066
S32500016FA0BDE8F8837B6B4FF44070F9E76B6803F060436B606A6828F0604313436B604FF4CC
S32500016FC0C002C2E71B0603F070633B43E0E70020E6E73B6813F0005FE4D14FF44070DFE7B3
S32500016FE07B6BC3F303635B00073399453FF661AF4FF44070D4E700BF6C1202000000FC1FC8
S3250001700008B5FFF728FF036823F0706343F01063036008BD08B5FFF71EFF036823F070634F
S32500017020036043F08063036008BD0000F8B504460E4615461F46FFF70EFF236803F07F039A
S32500017040B34243D3236813F0005F46D10023036043602B79012B25D02B797BB9036823F4D2
S32500017060C0030360436823F0FF5323F4E013436042681F4B03EA8747174347602B680F2B89
S3250001708022D0036823F07063036002682B681B0603F07063134303600020F8BD636B4FF4C0
S325000170A04070FAE7036843F400130360036843F480030360436803F060434360426827F0F3
S325000170C0604313434360C7E70020E6E7236813F0005FE3D14FF44070DFE7636BC3F303632E
S325000170E05B0007339E42B1D84FF44070D5E700BF0000FC1FF8B507460E461546FFF7ABFEBA
S3250001710004460068C0F30340FFF7D6FC85F848003B6813F0005F06D07B6BC3F303635B00FB
S3250001712007339E4229D923682B6013F4001F636808BF9B0C6B6030F003061CD0002303F0C1
S32500017140FC0202F10801615809BA2A4491600433DBB2B342F3D3984212D9DA1D2A4483F037
S3250001716003010831615C02F8011F0133DBB29842F5D10020F8BD0023EDE74FF44070F9E7F4
S325000171800020F7E708B5FFF766FE036808BD2DE9F84306460F46FFF74FFE04467D1E29461A
S325000171A03046FFF758FE06F520732044083083422DD3A0463046FFF7CBFCB8422BD333686B
S325000171C023F07F0305F07F051D433560316811F0005123D127B300252C4608F1080904E067
S325000171E00135EDB22946BD420FD23046FFF733FE04604460B8F1000FF2D000F108034844BD
S3250001720003F8014B8342FBD1EAE7002001E04FF44070BDE8F8834FF44070FAE70020F8E7D7
S325000172200020F6E708B50020FFF752FA08BD08B50020FFF703FA08BD08B50020FFF712FAF2
S3250001724008BD08B50020FFF743FA08BD08B50020FFF73EFA08BD08B50120FFF739FA08BDF1
S3250001726008B50120FFF7EAF908BD08B50120FFF72FFA08BD08B50120FFF72AFA08BD08B54F
S325000172800220FFF725FA08BD08B50220FFF7D6F908BD08B50220FFF71BFA08BD08B50220F4
S325000172A0FFF716FA08BD00006B4B53F820304A78002A40F0C9808A78002A40F09D80CA788B
S325000172C00878002800F0C380002A40F08F80D3F88C2042F48062C3F88C20D3F88C2042F4C0
S325000172E00062C3F88C20D3F88C2042F48052C3F88C20D3F88C2042F40072C3F88C20D3F887
S325000173008C00CA7A120202F4807220F480700243C3F88C20D3F88C2042F08002C3F88C2058
S325000173204A78002A53D09A6D42F010029A658A78002A51D09A6D42F020029A65CA78002ADA
S325000173404FD09A6D42F040029A659A6D087922F0020242EA40029A659A6D22F001024879A5
S3250001736002439A659A6D087A003018BF012022F0080242EAC0029A65D3F88C008A7912019B
S3250001738002F0100220F010000243C3F88C20D3F88C00CA79520102F0200220F020000243A0
